{
  "abi": [
    {
      "inputs": [
        {
          "internalType": "address",
          "name": "_feeToSetter",
          "type": "address"
        }
      ],
      "stateMutability": "nonpayable",
      "type": "constructor"
    },
    {
      "anonymous": false,
      "inputs": [
        {
          "indexed": true,
          "internalType": "address",
          "name": "token0",
          "type": "address"
        },
        {
          "indexed": true,
          "internalType": "address",
          "name": "token1",
          "type": "address"
        },
        {
          "indexed": false,
          "internalType": "address",
          "name": "pair",
          "type": "address"
        },
        {
          "indexed": false,
          "internalType": "uint256",
          "name": "",
          "type": "uint256"
        }
      ],
      "name": "PairCreated",
      "type": "event"
    },
    {
      "inputs": [
        {
          "internalType": "uint256",
          "name": "",
          "type": "uint256"
        }
      ],
      "name": "allPairs",
      "outputs": [
        {
          "internalType": "address",
          "name": "",
          "type": "address"
        }
      ],
      "stateMutability": "view",
      "type": "function"
    },
    {
      "inputs": [],
      "name": "allPairsLength",
      "outputs": [
        {
          "internalType": "uint256",
          "name": "",
          "type": "uint256"
        }
      ],
      "stateMutability": "view",
      "type": "function"
    },
    {
      "inputs": [
        {
          "internalType": "address",
          "name": "tokenA",
          "type": "address"
        },
        {
          "internalType": "address",
          "name": "tokenB",
          "type": "address"
        }
      ],
      "name": "createPair",
      "outputs": [
        {
          "internalType": "address",
          "name": "pair",
          "type": "address"
        }
      ],
      "stateMutability": "nonpayable",
      "type": "function"
    },
    {
      "inputs": [],
      "name": "feeTo",
      "outputs": [
        {
          "internalType": "address",
          "name": "",
          "type": "address"
        }
      ],
      "stateMutability": "view",
      "type": "function"
    },
    {
      "inputs": [],
      "name": "feeToSetter",
      "outputs": [
        {
          "internalType": "address",
          "name": "",
          "type": "address"
        }
      ],
      "stateMutability": "view",
      "type": "function"
    },
    {
      "inputs": [
        {
          "internalType": "address",
          "name": "",
          "type": "address"
        },
        {
          "internalType": "address",
          "name": "",
          "type": "address"
        }
      ],
      "name": "getPair",
      "outputs": [
        {
          "internalType": "address",
          "name": "",
          "type": "address"
        }
      ],
      "stateMutability": "view",
      "type": "function"
    },
    {
      "inputs": [
        {
          "internalType": "address",
          "name": "_feeTo",
          "type": "address"
        }
      ],
      "name": "setFeeTo",
      "outputs": [],
      "stateMutability": "nonpayable",
      "type": "function"
    },
    {
      "inputs": [
        {
          "internalType": "address",
          "name": "_feeToSetter",
          "type": "address"
        }
      ],
      "name": "setFeeToSetter",
      "outputs": [],
      "stateMutability": "nonpayable",
      "type": "function"
    }
  ],
  "bytecode": {
    "object": "0x608060405234801561001057600080fd5b5060405161291e38038061291e83398101604081905261002f91610054565b600180546001600160a01b0319166001600160a01b0392909216919091179055610084565b60006020828403121561006657600080fd5b81516001600160a01b038116811461007d57600080fd5b9392505050565b61288b806100936000396000f3fe608060405234801561001057600080fd5b50600436106100885760003560e01c8063a2e74af61161005b578063a2e74af6146100f4578063c9c6539614610109578063e6a439051461011c578063f46901ed1461015057600080fd5b8063017e7e581461008d578063094b7415146100bd5780631e3dd18b146100d0578063574f2ba3146100e3575b600080fd5b6000546100a0906001600160a01b031681565b6040516001600160a01b0390911681526020015b60405180910390f35b6001546100a0906001600160a01b031681565b6100a06100de366004610584565b610163565b6003546040519081526020016100b4565b6101076101023660046105b9565b61018d565b005b6100a06101173660046105db565b610205565b6100a061012a3660046105db565b60026020908152600092835260408084209091529082529020546001600160a01b031681565b61010761015e3660046105b9565b610504565b6003818154811061017357600080fd5b6000918252602090912001546001600160a01b0316905081565b6001546001600160a01b031633146101e35760405162461bcd60e51b81526020600482015260146024820152732ab734b9bbb0b82b191d102327a92124a22222a760611b60448201526064015b60405180910390fd5b600180546001600160a01b0319166001600160a01b0392909216919091179055565b6000816001600160a01b0316836001600160a01b031614156102695760405162461bcd60e51b815260206004820152601e60248201527f556e697377617056323a204944454e544943414c5f414444524553534553000060448201526064016101da565b600080836001600160a01b0316856001600160a01b03161061028c57838561028f565b84845b90925090506001600160a01b0382166102ea5760405162461bcd60e51b815260206004820152601760248201527f556e697377617056323a205a45524f5f4144445245535300000000000000000060448201526064016101da565b6001600160a01b038281166000908152600260209081526040808320858516845290915290205416156103585760405162461bcd60e51b8152602060048201526016602482015275556e697377617056323a20504149525f45584953545360501b60448201526064016101da565b60006040518060200161036a90610577565b601f1982820381018352601f9091011660408190526bffffffffffffffffffffffff19606086811b8216602084015285901b166034820152909150600090604801604051602081830303815290604052805190602001209050808251602084016000f560405163485cc95560e01b81526001600160a01b03868116600483015285811660248301529196509086169063485cc95590604401600060405180830381600087803b15801561041c57600080fd5b505af1158015610430573d6000803e3d6000fd5b505050506001600160a01b0384811660008181526002602081815260408084208987168086529083528185208054978d166001600160a01b031998891681179091559383528185208686528352818520805488168517905560038054600181018255958190527fc2575a0e9e593c00f959f8c92f12db2869c3395a3b0502d05e2516446f71f85b9095018054909716841790965592548351928352908201527f0d3648bd0f6ba80134a33ba9275ac585d9d315f0ad8355cddefde31afa28d0e9910160405180910390a35050505092915050565b6001546001600160a01b031633146105555760405162461bcd60e51b81526020600482015260146024820152732ab734b9bbb0b82b191d102327a92124a22222a760611b60448201526064016101da565b600080546001600160a01b0319166001600160a01b0392909216919091179055565b6122478061060f83390190565b60006020828403121561059657600080fd5b5035919050565b80356001600160a01b03811681146105b457600080fd5b919050565b6000602082840312156105cb57600080fd5b6105d48261059d565b9392505050565b600080604083850312156105ee57600080fd5b6105f78361059d565b91506106056020840161059d565b9050925092905056fe60806040526001600c5534801561001557600080fd5b50604080518082018252600a8152692ab734b9bbb0b8102b1960b11b6020918201528151808301835260018152603160f81b9082015281517f8b73c3c69bb8fe3d512ecc4cf759cc79239f7b179b0ffacaa9a75d522b39400f818301527fbfcc8ef98ffbf7b6c3fec7bf5185b566b9863e35a9d83acd49ad6824b5969738818401527fc89efdaa54c0f20c7adf612882df0950f5a951637e0307cdcb4c672f298b8bc660608201524660808201523060a0808301919091528351808303909101815260c09091019092528151910120600355600580546001600160a01b0319163317905561213f806101086000396000f3fe608060405234801561001057600080fd5b50600436106101a95760003560e01c80636a627842116100f9578063ba9a7a5611610097578063d21220a711610071578063d21220a714610408578063d505accf1461041b578063dd62ed3e1461042e578063fff6cae91461045957600080fd5b8063ba9a7a56146103d9578063bc25cf77146103e2578063c45a0155146103f557600080fd5b80637ecebe00116100d35780637ecebe001461035957806389afcb441461037957806395d89b41146103a1578063a9059cbb146103c657600080fd5b80636a6278421461031d57806370a08231146103305780637464fc3d1461035057600080fd5b806323b872dd116101665780633644e515116101405780633644e515146102ef578063485cc955146102f85780635909c0d51461030b5780635a3d54931461031457600080fd5b806323b872dd1461029b57806330adf81f146102ae578063313ce567146102d557600080fd5b8063022c0d9f146101ae57806306fdde03146101c35780630902f1ac14610202578063095ea7b3146102365780630dfe16811461025957806318160ddd14610284575b600080fd5b6101c16101bc366004611d00565b610461565b005b6101ec6040518060400160405280600a8152602001692ab734b9bbb0b8102b1960b11b81525081565b6040516101f99190611dc6565b60405180910390f35b61020a6108fa565b604080516001600160701b03948516815293909216602084015263ffffffff16908201526060016101f9565b610249610244366004611df9565b610924565b60405190151581526020016101f9565b60065461026c906001600160a01b031681565b6040516001600160a01b0390911681526020016101f9565b61028d60005481565b6040519081526020016101f9565b6102496102a9366004611e25565b61093b565b61028d7f6e71edae12b1b97f4d1f60370fef10105fa2faae0126114a169c64845d6126c981565b6102dd601281565b60405160ff90911681526020016101f9565b61028d60035481565b6101c1610306366004611e66565b6109b5565b61028d60095481565b61028d600a5481565b61028d61032b366004611e9f565b610a34565b61028d61033e366004611e9f565b60016020526000908152604090205481565b61028d600b5481565b61028d610367366004611e9f565b60046020526000908152604090205481565b61038c610387366004611e9f565b610cf9565b604080519283526020830191909152016101f9565b6101ec604051806040016040528060068152602001652aa72496ab1960d11b81525081565b6102496103d4366004611df9565b61105f565b61028d6103e881565b6101c16103f0366004611e9f565b61106c565b60055461026c906001600160a01b031681565b60075461026c906001600160a01b031681565b6101c1610429366004611ebc565b611180565b61028d61043c366004611e66565b600260209081526000928352604080842090915290825290205481565b6101c1611394565b600c5460011461048c5760405162461bcd60e51b815260040161048390611f33565b60405180910390fd5b6000600c558415158061049f5750600084115b6104f95760405162461bcd60e51b815260206004820152602560248201527f556e697377617056323a20494e53554646494349454e545f4f55545055545f416044820152641353d5539560da1b6064820152608401610483565b6000806105046108fa565b5091509150816001600160701b0316871080156105295750806001600160701b031686105b61057f5760405162461bcd60e51b815260206004820152602160248201527f556e697377617056323a20494e53554646494349454e545f4c495155494449546044820152605960f81b6064820152608401610483565b60065460075460009182916001600160a01b039182169190811690891682148015906105bd5750806001600160a01b0316896001600160a01b031614155b6106015760405162461bcd60e51b8152602060048201526015602482015274556e697377617056323a20494e56414c49445f544f60581b6044820152606401610483565b8a1561061257610612828a8d6114b8565b891561062357610623818a8c6114b8565b6040516370a0823160e01b81523060048201526001600160a01b038316906370a0823190602401602060405180830381865afa158015610667573d6000803e3d6000fd5b505050506040513d601f19601f8201168201806040525081019061068b9190611f5e565b6040516370a0823160e01b81523060048201529094506001600160a01b038216906370a0823190602401602060405180830381865afa1580156106d2573d6000803e3d6000fd5b505050506040513d601f19601f820116820180604052508101906106f69190611f5e565b92505050600089856001600160701b03166107119190611f8d565b831161071e57600061073b565b6107318a6001600160701b038716611f8d565b61073b9084611f8d565b905060006107528a6001600160701b038716611f8d565b831161075f57600061077c565b6107728a6001600160701b038716611f8d565b61077c9084611f8d565b9050600082118061078d5750600081115b6107e55760405162461bcd60e51b8152602060048201526024808201527f556e697377617056323a20494e53554646494349454e545f494e5055545f414d60448201526313d5539560e21b6064820152608401610483565b60006108076107f5846003611603565b610801876103e8611603565b9061166a565b905060006108196107f5846003611603565b905061083e620f42406108386001600160701b038b8116908b16611603565b90611603565b6108488383611603565b10156108855760405162461bcd60e51b815260206004820152600c60248201526b556e697377617056323a204b60a01b6044820152606401610483565b5050610893848488886116c0565b60408051838152602081018390529081018c9052606081018b90526001600160a01b038a169033907fd78ad95fa46c994b6551d0da85fc275fe613ce37657fb8d5e3d130840159d8229060800160405180910390a350506001600c55505050505050505050565b6008546001600160701b0380821692600160701b830490911691600160e01b900463ffffffff1690565b60006109313384846118ac565b5060015b92915050565b6001600160a01b0383166000908152600260209081526040808320338452909152812054600019146109a0576001600160a01b03841660009081526002602090815260408083203384529091528120805484929061099a908490611fa4565b90915550505b6109ab84848461190e565b5060019392505050565b6005546001600160a01b03163314610a065760405162461bcd60e51b81526020600482015260146024820152732ab734b9bbb0b82b191d102327a92124a22222a760611b6044820152606401610483565b600680546001600160a01b039384166001600160a01b03199182161790915560078054929093169116179055565b6000600c54600114610a585760405162461bcd60e51b815260040161048390611f33565b6000600c81905580610a686108fa565b506006546040516370a0823160e01b81523060048201529294509092506000916001600160a01b03909116906370a0823190602401602060405180830381865afa158015610aba573d6000803e3d6000fd5b505050506040513d601f19601f82011682018060405250810190610ade9190611f5e565b6007546040516370a0823160e01b81523060048201529192506000916001600160a01b03909116906370a0823190602401602060405180830381865afa158015610b2c573d6000803e3d6000fd5b505050506040513d601f19601f82011682018060405250810190610b509190611f5e565b90506000610b67836001600160701b03871661166a565b90506000610b7e836001600160701b03871661166a565b90506000610b8c87876119af565b60005490915080610bc357610baf6103e8610801610baa8787611603565b611ad1565b9850610bbe60006103e8611b41565b610c0a565b610c076001600160701b038916610bda8684611603565b610be49190611fd2565b6001600160701b038916610bf88685611603565b610c029190611fd2565b611bca565b98505b60008911610c6b5760405162461bcd60e51b815260206004820152602860248201527f556e697377617056323a20494e53554646494349454e545f4c495155494449546044820152671657d3525395115160c21b6064820152608401610483565b610c758a8a611b41565b610c8186868a8a6116c0565b8115610cab57600854610ca7906001600160701b0380821691600160701b900416611603565b600b555b604080518581526020810185905233917f4c209b5fc8ad50758f13e2e1088ba56a560dff690a1c6fef26394f4c03821c4f910160405180910390a250506001600c5550949695505050505050565b600080600c54600114610d1e5760405162461bcd60e51b815260040161048390611f33565b6000600c81905580610d2e6108fa565b506006546007546040516370a0823160e01b81523060048201529395509193506001600160a01b039081169291169060009083906370a0823190602401602060405180830381865afa158015610d88573d6000803e3d6000fd5b505050506040513d601f19601f82011682018060405250810190610dac9190611f5e565b6040516370a0823160e01b81523060048201529091506000906001600160a01b038416906370a0823190602401602060405180830381865afa158015610df6573d6000803e3d6000fd5b505050506040513d601f19601f82011682018060405250810190610e1a9190611f5e565b30600090815260016020526040812054919250610e3788886119af565b60005490915080610e488487611603565b610e529190611fd2565b9a5080610e5f8486611603565b610e699190611fd2565b995060008b118015610e7b575060008a115b610ed85760405162461bcd60e51b815260206004820152602860248201527f556e697377617056323a20494e53554646494349454e545f4c495155494449546044820152671657d0955493915160c21b6064820152608401610483565b610ee23084611be2565b610eed878d8d6114b8565b610ef8868d8c6114b8565b6040516370a0823160e01b81523060048201526001600160a01b038816906370a0823190602401602060405180830381865afa158015610f3c573d6000803e3d6000fd5b505050506040513d601f19601f82011682018060405250810190610f609190611f5e565b6040516370a0823160e01b81523060048201529095506001600160a01b038716906370a0823190602401602060405180830381865afa158015610fa7573d6000803e3d6000fd5b505050506040513d601f19601f82011682018060405250810190610fcb9190611f5e565b9350610fd985858b8b6116c0565b811561100357600854610fff906001600160701b0380821691600160701b900416611603565b600b555b604080518c8152602081018c90526001600160a01b038e169133917fdccd412f0b1252819cb1fd330b93224ca42612892bb3f4f789976e6d81936496910160405180910390a35050505050505050506001600c81905550915091565b600061093133848461190e565b600c5460011461108e5760405162461bcd60e51b815260040161048390611f33565b6000600c556006546007546008546040516370a0823160e01b81523060048201526001600160a01b0393841693909216916111299184918691611124916001600160701b039091169084906370a08231906024015b602060405180830381865afa158015611100573d6000803e3d6000fd5b505050506040513d601f19601f820116820180604052508101906108019190611f5e565b6114b8565b6008546040516370a0823160e01b8152306004820152611176918391869161112491600160701b9091046001600160701b0316906001600160a01b038516906370a08231906024016110e3565b50506001600c5550565b428410156111c55760405162461bcd60e51b8152602060048201526012602482015271155b9a5cddd85c158c8e881156141254915160721b6044820152606401610483565b6003546001600160a01b038816600090815260046020526040812080549192917f6e71edae12b1b97f4d1f60370fef10105fa2faae0126114a169c64845d6126c9918b918b918b91908761121883611fe6565b909155506040805160208101969096526001600160a01b0394851690860152929091166060840152608083015260a082015260c0810187905260e0016040516020818303038152906040528051906020012060405160200161129192919061190160f01b81526002810192909252602282015260420190565b60408051601f198184030181528282528051602091820120600080855291840180845281905260ff88169284019290925260608301869052608083018590529092509060019060a0016020604051602081039080840390855afa1580156112fc573d6000803e3d6000fd5b5050604051601f1901519150506001600160a01b038116158015906113325750886001600160a01b0316816001600160a01b0316145b61137e5760405162461bcd60e51b815260206004820152601c60248201527f556e697377617056323a20494e56414c49445f5349474e4154555245000000006044820152606401610483565b6113898989896118ac565b505050505050505050565b600c546001146113b65760405162461bcd60e51b815260040161048390611f33565b6000600c556006546040516370a0823160e01b81523060048201526114b1916001600160a01b0316906370a0823190602401602060405180830381865afa158015611405573d6000803e3d6000fd5b505050506040513d601f19601f820116820180604052508101906114299190611f5e565b6007546040516370a0823160e01b81523060048201526001600160a01b03909116906370a0823190602401602060405180830381865afa158015611471573d6000803e3d6000fd5b505050506040513d601f19601f820116820180604052508101906114959190611f5e565b6008546001600160701b0380821691600160701b9004166116c0565b6001600c55565b604080518082018252601981527f7472616e7366657228616464726573732c75696e74323536290000000000000060209182015281516001600160a01b0385811660248301526044808301869052845180840390910181526064909201845291810180516001600160e01b031663a9059cbb60e01b179052915160009283928716916115449190612001565b6000604051808303816000865af19150503d8060008114611581576040519150601f19603f3d011682016040523d82523d6000602084013e611586565b606091505b50915091508180156115b05750805115806115b05750808060200190518101906115b0919061201d565b6115fc5760405162461bcd60e51b815260206004820152601a60248201527f556e697377617056323a205452414e534645525f4641494c45440000000000006044820152606401610483565b5050505050565b600081158061162757508282611619818361203f565b92506116259083611fd2565b145b6109355760405162461bcd60e51b815260206004820152601460248201527364732d6d6174682d6d756c2d6f766572666c6f7760601b6044820152606401610483565b6000826116778382611f8d565b91508111156109355760405162461bcd60e51b815260206004820152601560248201527464732d6d6174682d7375622d756e646572666c6f7760581b6044820152606401610483565b6001600160701b0384118015906116de57506001600160701b038311155b6117205760405162461bcd60e51b8152602060048201526013602482015272556e697377617056323a204f564552464c4f5760681b6044820152606401610483565b60006117316401000000004261205e565b60085490915060009061175190600160e01b900463ffffffff1683612072565b905060008163ffffffff1611801561177157506001600160701b03841615155b801561178557506001600160701b03831615155b15611814578063ffffffff166117ad8561179e86611c65565b6001600160e01b031690611c7e565b6001600160e01b03166117c0919061203f565b600960008282546117d19190611fa4565b909155505063ffffffff81166117ea8461179e87611c65565b6001600160e01b03166117fd919061203f565b600a600082825461180e9190611fa4565b90915550505b6008805463ffffffff8416600160e01b026001600160e01b036001600160701b03898116600160701b9081026001600160e01b03199095168c83161794909417918216831794859055604080519382169282169290921783529290930490911660208201527f1c411e9a96e071241c2f21f7726b17ae89e3cab4c78be50e062b03a9fffbbad1910160405180910390a1505050505050565b6001600160a01b0383811660008181526002602090815260408083209487168084529482529182902085905590518481527f8c5be1e5ebec7d5bd14f71427d1e84f3dd0314c0f7b2291e5b200ac8c7c3b92591015b60405180910390a3505050565b6001600160a01b03831660009081526001602052604081208054839290611936908490611f8d565b90915550506001600160a01b03821660009081526001602052604081208054839290611963908490611fa4565b92505081905550816001600160a01b0316836001600160a01b03167fddf252ad1be2c89b69c2b068fc378daa952ba7f163c4a11628f55a4df523b3ef8360405161190191815260200190565b600080600560009054906101000a90046001600160a01b03166001600160a01b031663017e7e586040518163ffffffff1660e01b8152600401602060405180830381865afa158015611a05573d6000803e3d6000fd5b505050506040513d601f19601f82011682018060405250810190611a299190612097565b600b546001600160a01b038216158015945091925090611ac9578015611ac9576000611a64610baa6001600160701b03888116908816611603565b90506000611a7183611ad1565b905080821115611ac6576000611a9282611a8c856005611603565b90611c93565b611aa8611a9f858561166a565b60005490611603565b611ab29190611fd2565b90508015611ac457611ac48582611b41565b505b50505b505092915050565b60006003821115611b325750806000611aeb600283611fd2565b611af6906001611fa4565b90505b81811015611b2c57905080600281611b118186611fd2565b611b1b9190611fa4565b611b259190611fd2565b9050611af9565b50919050565b8115611b3c575060015b919050565b80600080828254611b529190611fa4565b90915550506001600160a01b03821660009081526001602052604081208054839290611b7f908490611fa4565b90915550506040518181526001600160a01b038316906000907fddf252ad1be2c89b69c2b068fc378daa952ba7f163c4a11628f55a4df523b3ef906020015b60405180910390a35050565b6000818310611bd95781611bdb565b825b9392505050565b6001600160a01b03821660009081526001602052604081208054839290611c0a908490611f8d565b9250508190555080600080828254611c229190611f8d565b90915550506040518181526000906001600160a01b038416907fddf252ad1be2c89b69c2b068fc378daa952ba7f163c4a11628f55a4df523b3ef90602001611bbe565b6000610935600160701b6001600160701b0384166120b4565b6000611bdb6001600160701b038316846120e3565b600082611ca08382611fa4565b91508110156109355760405162461bcd60e51b815260206004820152601460248201527364732d6d6174682d6164642d6f766572666c6f7760601b6044820152606401610483565b6001600160a01b0381168114611cfd57600080fd5b50565b600080600080600060808688031215611d1857600080fd5b85359450602086013593506040860135611d3181611ce8565b9250606086013567ffffffffffffffff80821115611d4e57600080fd5b818801915088601f830112611d6257600080fd5b813581811115611d7157600080fd5b896020828501011115611d8357600080fd5b9699959850939650602001949392505050565b60005b83811015611db1578181015183820152602001611d99565b83811115611dc0576000848401525b50505050565b6020815260008251806020840152611de5816040850160208701611d96565b601f01601f19169190910160400192915050565b60008060408385031215611e0c57600080fd5b8235611e1781611ce8565b946020939093013593505050565b600080600060608486031215611e3a57600080fd5b8335611e4581611ce8565b92506020840135611e5581611ce8565b929592945050506040919091013590565b60008060408385031215611e7957600080fd5b8235611e8481611ce8565b91506020830135611e9481611ce8565b809150509250929050565b600060208284031215611eb157600080fd5b8135611bdb81611ce8565b600080600080600080600060e0888a031215611ed757600080fd5b8735611ee281611ce8565b96506020880135611ef281611ce8565b95506040880135945060608801359350608088013560ff81168114611f1657600080fd5b9699959850939692959460a0840135945060c09093013592915050565b602080825260119082015270155b9a5cddd85c158c8e881313d0d2d151607a1b604082015260600190565b600060208284031215611f7057600080fd5b5051919050565b634e487b7160e01b600052601160045260246000fd5b600082821015611f9f57611f9f611f77565b500390565b60008219821115611fb757611fb7611f77565b500190565b634e487b7160e01b600052601260045260246000fd5b600082611fe157611fe1611fbc565b500490565b6000600019821415611ffa57611ffa611f77565b5060010190565b60008251612013818460208701611d96565b9190910192915050565b60006020828403121561202f57600080fd5b81518015158114611bdb57600080fd5b600081600019048311821515161561205957612059611f77565b500290565b60008261206d5761206d611fbc565b500690565b600063ffffffff8381169083168181101561208f5761208f611f77565b039392505050565b6000602082840312156120a957600080fd5b8151611bdb81611ce8565b60006001600160e01b03828116848216811515828404821116156120da576120da611f77565b02949350505050565b60006001600160e01b03838116806120fd576120fd611fbc565b9216919091049291505056fea26469706673582212202823a82c36c747d92eb284bc58daf820f697a4657281da6f10009c1acd451f0764736f6c634300080a0033a26469706673582212201fe2d5c75b8d2781599342bb89076c26ed6bd8bc9938b286bdf6c34cc887aabe64736f6c634300080a0033",
    "linkReferences": {}
  },
  "methodIdentifiers": {
    "allPairs(uint256)": "1e3dd18b",
    "allPairsLength()": "574f2ba3",
    "createPair(address,address)": "c9c65396",
    "feeTo()": "017e7e58",
    "feeToSetter()": "094b7415",
    "getPair(address,address)": "e6a43905",
    "setFeeTo(address)": "f46901ed",
    "setFeeToSetter(address)": "a2e74af6"
  },
  "id": 2
}