{
  "abi": [
    {
      "inputs": [
        {
          "internalType": "address",
          "name": "factoryAddress",
          "type": "address"
        }
      ],
      "stateMutability": "nonpayable",
      "type": "constructor"
    },
    {
      "inputs": [
        {
          "internalType": "address",
          "name": "tokenA",
          "type": "address"
        },
        {
          "internalType": "address",
          "name": "tokenB",
          "type": "address"
        },
        {
          "internalType": "uint256",
          "name": "amountADesired",
          "type": "uint256"
        },
        {
          "internalType": "uint256",
          "name": "amountBDesired",
          "type": "uint256"
        },
        {
          "internalType": "uint256",
          "name": "amountAMin",
          "type": "uint256"
        },
        {
          "internalType": "uint256",
          "name": "amountBMin",
          "type": "uint256"
        }
      ],
      "name": "_calculateLiquidity",
      "outputs": [
        {
          "internalType": "uint256",
          "name": "amountA",
          "type": "uint256"
        },
        {
          "internalType": "uint256",
          "name": "amountB",
          "type": "uint256"
        }
      ],
      "stateMutability": "view",
      "type": "function"
    },
    {
      "inputs": [
        {
          "internalType": "address",
          "name": "tokenA",
          "type": "address"
        },
        {
          "internalType": "address",
          "name": "tokenB",
          "type": "address"
        },
        {
          "internalType": "uint256",
          "name": "amountADesired",
          "type": "uint256"
        },
        {
          "internalType": "uint256",
          "name": "amountBDesired",
          "type": "uint256"
        },
        {
          "internalType": "uint256",
          "name": "amountAMin",
          "type": "uint256"
        },
        {
          "internalType": "uint256",
          "name": "amountBMin",
          "type": "uint256"
        },
        {
          "internalType": "address",
          "name": "to",
          "type": "address"
        }
      ],
      "name": "addLiquidity",
      "outputs": [
        {
          "internalType": "uint256",
          "name": "amountA",
          "type": "uint256"
        },
        {
          "internalType": "uint256",
          "name": "amountB",
          "type": "uint256"
        },
        {
          "internalType": "uint256",
          "name": "liquidity",
          "type": "uint256"
        }
      ],
      "stateMutability": "nonpayable",
      "type": "function"
    },
    {
      "inputs": [
        {
          "internalType": "uint256",
          "name": "amountA",
          "type": "uint256"
        },
        {
          "internalType": "uint256",
          "name": "reserveA",
          "type": "uint256"
        },
        {
          "internalType": "uint256",
          "name": "reserveB",
          "type": "uint256"
        }
      ],
      "name": "quote",
      "outputs": [
        {
          "internalType": "uint256",
          "name": "amountB",
          "type": "uint256"
        }
      ],
      "stateMutability": "pure",
      "type": "function"
    },
    {
      "inputs": [
        {
          "internalType": "address",
          "name": "tokenA",
          "type": "address"
        },
        {
          "internalType": "address",
          "name": "tokenB",
          "type": "address"
        },
        {
          "internalType": "uint256",
          "name": "liquidity",
          "type": "uint256"
        },
        {
          "internalType": "uint256",
          "name": "amountAMin",
          "type": "uint256"
        },
        {
          "internalType": "uint256",
          "name": "amountBMin",
          "type": "uint256"
        },
        {
          "internalType": "address",
          "name": "to",
          "type": "address"
        }
      ],
      "name": "removeLiquidity",
      "outputs": [
        {
          "internalType": "uint256",
          "name": "amountA",
          "type": "uint256"
        },
        {
          "internalType": "uint256",
          "name": "amountB",
          "type": "uint256"
        }
      ],
      "stateMutability": "nonpayable",
      "type": "function"
    },
    {
      "inputs": [
        {
          "internalType": "uint256",
          "name": "amountIn",
          "type": "uint256"
        },
        {
          "internalType": "uint256",
          "name": "amountOutMin",
          "type": "uint256"
        },
        {
          "internalType": "address[]",
          "name": "path",
          "type": "address[]"
        },
        {
          "internalType": "address",
          "name": "to",
          "type": "address"
        }
      ],
      "name": "swapExactTokensForTokens",
      "outputs": [
        {
          "internalType": "uint256[]",
          "name": "amounts",
          "type": "uint256[]"
        }
      ],
      "stateMutability": "nonpayable",
      "type": "function"
    },
    {
      "inputs": [
        {
          "internalType": "uint256",
          "name": "amountOut",
          "type": "uint256"
        },
        {
          "internalType": "uint256",
          "name": "amountInMax",
          "type": "uint256"
        },
        {
          "internalType": "address[]",
          "name": "path",
          "type": "address[]"
        },
        {
          "internalType": "address",
          "name": "to",
          "type": "address"
        }
      ],
      "name": "swapTokensForExactTokens",
      "outputs": [
        {
          "internalType": "uint256[]",
          "name": "amounts",
          "type": "uint256[]"
        }
      ],
      "stateMutability": "nonpayable",
      "type": "function"
    }
  ],
  "bytecode": {
    "object": "0x608060405234801561001057600080fd5b5060405161199638038061199683398101604081905261002f91610054565b600080546001600160a01b0319166001600160a01b0392909216919091179055610084565b60006020828403121561006657600080fd5b81516001600160a01b038116811461007d57600080fd5b9392505050565b611903806100936000396000f3fe608060405234801561001057600080fd5b50600436106100625760003560e01c806342712a6714610067578063472b43f31461009057806355996723146100a3578063ad615dec146100cb578063c0e3ee6b146100ec578063ca3d6539146100ff575b600080fd5b61007a610075366004611404565b61012d565b60405161008791906114a2565b60405180910390f35b61007a61009e366004611404565b6102ee565b6100b66100b13660046114e6565b6103b1565b60408051928352602083019190915201610087565b6100de6100d936600461153f565b6104d4565b604051908152602001610087565b6100b66100fa36600461156b565b6104e9565b61011261010d3660046115d2565b61068c565b60408051938452602084019290925290820152606001610087565b606061018060008054906101000a90046001600160a01b03168786868080602002602001604051908101604052809392919081815260200183836020028082843760009201919091525061085592505050565b9050848160018351610192919061165a565b815181106101a2576101a2611671565b602002602001015111156101f45760405162461bcd60e51b8152602060048201526014602482015273092dce0eae84082dadeeadce840a8de4090d2ced60631b60448201526064015b60405180910390fd5b6102a68484600081811061020a5761020a611671565b905060200201602081019061021f9190611687565b600080543391610286916001600160a01b031690899089908161024457610244611671565b90506020020160208101906102599190611687565b8989600181811061026c5761026c611671565b90506020020160208101906102819190611687565b6109eb565b8460008151811061029957610299611671565b6020026020010151610a61565b6102e581858580806020026020016040519081016040528093929190818152602001838360200280828437600092019190915250879250610b7a915050565b95945050505050565b606061034160008054906101000a90046001600160a01b031687868680806020026020016040519081016040528093929190818152602001838360200280828437600092019190915250610d4592505050565b9050848160018351610353919061165a565b8151811061036357610363611671565b602002602001015110156101f45760405162461bcd60e51b81526020600482015260156024820152744f757470757420416d6f756e7420546f6f204c6f7760581b60448201526064016101eb565b600080548190819081906103cf906001600160a01b03168b8b610ebb565b915091506000808360001480156103e4575082155b156103f4578995508894506104c5565b6103ff8a8585610f85565b90508881116104595786811161044e5760405162461bcd60e51b815260206004820152601460248201527324b739bab33334b1b4b2b73a1030b6b7bab73a2160611b60448201526064016101eb565b8995509350836104c5565b610464898486610f85565b915089821115610476576104766116ab565b8782116104bc5760405162461bcd60e51b815260206004820152601460248201527324b739bab33334b1b4b2b73a1030b6b7bab73a2160611b60448201526064016101eb565b90945087935084905b50505050965096945050505050565b60006104e1848484610f85565b949350505050565b6000805481908190610505906001600160a01b03168a8a6109eb565b6040516323b872dd60e01b81523360048201526001600160a01b03821660248201819052604482018a90529192506323b872dd906064016020604051808303816000875af115801561055b573d6000803e3d6000fd5b505050506040513d601f19601f8201168201806040525081019061057f91906116c1565b5060405163226bf2d160e21b81526001600160a01b0385811660048301528216906389afcb449060240160408051808303816000875af11580156105c7573d6000803e3d6000fd5b505050506040513d601f19601f820116820180604052508101906105eb91906116e3565b9093509150858310156106385760405162461bcd60e51b8152602060048201526015602482015274125b9cdd59999a58da595b9d081048185b5bdd5b9d605a1b60448201526064016101eb565b848310156106805760405162461bcd60e51b8152602060048201526015602482015274125b9cdd59999a58da595b9d081088185b5bdd5b9d605a1b60448201526064016101eb565b50965096945050505050565b6000805460405163e6a4390560e01b81526001600160a01b038a8116600483015289811660248301528392839283929091169063e6a4390590604401602060405180830381865afa1580156106e5573d6000803e3d6000fd5b505050506040513d601f19601f820116820180604052508101906107099190611707565b6001600160a01b03161415610792576000546040516364e329cb60e11b81526001600160a01b038c811660048301528b811660248301529091169063c9c65396906044016020604051808303816000875af115801561076c573d6000803e3d6000fd5b505050506040513d601f19601f820116820180604052508101906107909190611707565b505b6107a08a8a8a8a8a8a6103b1565b60008054929550909350906107bf906001600160a01b03168c8c6109eb565b90506107cd8b338387610a61565b6107d98a338386610a61565b6040516335313c2160e11b81526001600160a01b038681166004830152821690636a627842906024016020604051808303816000875af1158015610821573d6000803e3d6000fd5b505050506040513d601f19601f820116820180604052508101906108459190611724565b9150509750975097945050505050565b60606002825110156108a95760405162461bcd60e51b815260206004820152601e60248201527f556e697377617056324c6962726172793a20494e56414c49445f50415448000060448201526064016101eb565b815167ffffffffffffffff8111156108c3576108c361173d565b6040519080825280602002602001820160405280156108ec578160200160208202803683370190505b5090508281600183516108ff919061165a565b8151811061090f5761090f611671565b60200260200101818152505060006001835161092b919061165a565b90505b80156109e35760008061097e878661094760018761165a565b8151811061095757610957611671565b602002602001015187868151811061097157610971611671565b6020026020010151610ebb565b915091506109a684848151811061099757610997611671565b60200260200101518383611025565b846109b260018661165a565b815181106109c2576109c2611671565b602002602001018181525050505080806109db90611753565b91505061092e565b509392505050565b60405163e6a4390560e01b81526001600160a01b03838116600483015282811660248301526000919085169063e6a4390590604401602060405180830381865afa158015610a3d573d6000803e3d6000fd5b505050506040513d601f19601f820116820180604052508101906104e19190611707565b6040516001600160a01b038481166024830152838116604483015260648201839052600091829187169060840160408051601f198184030181529181526020820180516001600160e01b03166323b872dd60e01b17905251610ac3919061176a565b6000604051808303816000865af19150503d8060008114610b00576040519150601f19603f3d011682016040523d82523d6000602084013e610b05565b606091505b5091509150811580610b335750805115801590610b33575080806020019051810190610b3191906116c1565b155b15610b725760405162461bcd60e51b815260206004820152600f60248201526e151c985b9cd9995c8811985a5b1959608a1b60448201526064016101eb565b505050505050565b60005b60018351610b8b919061165a565b811015610d3f57600080848381518110610ba757610ba7611671565b602002602001015185846001610bbd91906117a5565b81518110610bcd57610bcd611671565b6020026020010151915091506000610be58383611104565b509050600087610bf68660016117a5565b81518110610c0657610c06611671565b60200260200101519050600080836001600160a01b0316866001600160a01b031614610c3457826000610c38565b6000835b91509150600060028a51610c4c919061165a565b8810610c585788610c92565b600054610c92906001600160a01b0316878c610c758c60026117a5565b81518110610c8557610c85611671565b60200260200101516109eb565b600054909150610cac906001600160a01b031688886109eb565b60405163022c0d9f60e01b815260048101859052602481018490526001600160a01b0383811660448301526080606483015260006084830152919091169063022c0d9f9060a401600060405180830381600087803b158015610d0d57600080fd5b505af1158015610d21573d6000803e3d6000fd5b50505050505050505050508080610d37906117bd565b915050610b7d565b50505050565b6060600282511015610d995760405162461bcd60e51b815260206004820152601e60248201527f556e697377617056324c6962726172793a20494e56414c49445f50415448000060448201526064016101eb565b815167ffffffffffffffff811115610db357610db361173d565b604051908082528060200260200182016040528015610ddc578160200160208202803683370190505b5090508281600081518110610df357610df3611671565b60200260200101818152505060005b60018351610e10919061165a565b8110156109e357600080610e5687868581518110610e3057610e30611671565b602002602001015187866001610e4691906117a5565b8151811061097157610971611671565b91509150610e7e848481518110610e6f57610e6f611671565b602002602001015183836111fc565b84610e8a8560016117a5565b81518110610e9a57610e9a611671565b60200260200101818152505050508080610eb3906117bd565b915050610e02565b6000806000610eca8585611104565b509050600080610edb8888886109eb565b6001600160a01b0316630902f1ac6040518163ffffffff1660e01b8152600401606060405180830381865afa158015610f18573d6000803e3d6000fd5b505050506040513d601f19601f82011682018060405250810190610f3c91906117f4565b506001600160701b031691506001600160701b03169150826001600160a01b0316876001600160a01b031614610f73578082610f76565b81815b90999098509650505050505050565b6000808411610fe45760405162461bcd60e51b815260206004820152602560248201527f556e697377617056324c6962726172793a20494e53554646494349454e545f416044820152641353d5539560da1b60648201526084016101eb565b600083118015610ff45750600082115b6110105760405162461bcd60e51b81526004016101eb90611844565b8261101b85846112d4565b6104e1919061188c565b600080841161108b5760405162461bcd60e51b815260206004820152602c60248201527f556e697377617056324c6962726172793a20494e53554646494349454e545f4f60448201526b155514155517d05353d5539560a21b60648201526084016101eb565b60008311801561109b5750600082115b6110b75760405162461bcd60e51b81526004016101eb90611844565b60006110cf6103e86110c986886112d4565b906112d4565b905060006110e36103e56110c98689611341565b90506110fa60016110f4838561188c565b90611397565b9695505050505050565b600080826001600160a01b0316846001600160a01b031614156111775760405162461bcd60e51b815260206004820152602560248201527f556e697377617056324c6962726172793a204944454e544943414c5f41444452604482015264455353455360d81b60648201526084016101eb565b826001600160a01b0316846001600160a01b03161061119757828461119a565b83835b90925090506001600160a01b0382166111f55760405162461bcd60e51b815260206004820152601e60248201527f556e697377617056324c6962726172793a205a45524f5f41444452455353000060448201526064016101eb565b9250929050565b60008084116112615760405162461bcd60e51b815260206004820152602b60248201527f556e697377617056324c6962726172793a20494e53554646494349454e545f4960448201526a1394155517d05353d5539560aa1b60648201526084016101eb565b6000831180156112715750600082115b61128d5760405162461bcd60e51b81526004016101eb90611844565b600061129b856103e56112d4565b905060006112a982856112d4565b905060006112bd836110f4886103e86112d4565b90506112c9818361188c565b979650505050505050565b60008115806112f8575082826112ea81836118ae565b92506112f6908361188c565b145b61133b5760405162461bcd60e51b815260206004820152601460248201527364732d6d6174682d6d756c2d6f766572666c6f7760601b60448201526064016101eb565b92915050565b60008261134e838261165a565b915081111561133b5760405162461bcd60e51b815260206004820152601560248201527464732d6d6174682d7375622d756e646572666c6f7760581b60448201526064016101eb565b6000826113a483826117a5565b915081101561133b5760405162461bcd60e51b815260206004820152601460248201527364732d6d6174682d6164642d6f766572666c6f7760601b60448201526064016101eb565b6001600160a01b038116811461140157600080fd5b50565b60008060008060006080868803121561141c57600080fd5b8535945060208601359350604086013567ffffffffffffffff8082111561144257600080fd5b818801915088601f83011261145657600080fd5b81358181111561146557600080fd5b8960208260051b850101111561147a57600080fd5b6020830195508094505050506060860135611494816113ec565b809150509295509295909350565b6020808252825182820181905260009190848201906040850190845b818110156114da578351835292840192918401916001016114be565b50909695505050505050565b60008060008060008060c087890312156114ff57600080fd5b863561150a816113ec565b9550602087013561151a816113ec565b95989597505050506040840135936060810135936080820135935060a0909101359150565b60008060006060848603121561155457600080fd5b505081359360208301359350604090920135919050565b60008060008060008060c0878903121561158457600080fd5b863561158f816113ec565b9550602087013561159f816113ec565b945060408701359350606087013592506080870135915060a08701356115c4816113ec565b809150509295509295509295565b600080600080600080600060e0888a0312156115ed57600080fd5b87356115f8816113ec565b96506020880135611608816113ec565b955060408801359450606088013593506080880135925060a0880135915060c0880135611634816113ec565b8091505092959891949750929550565b634e487b7160e01b600052601160045260246000fd5b60008282101561166c5761166c611644565b500390565b634e487b7160e01b600052603260045260246000fd5b60006020828403121561169957600080fd5b81356116a4816113ec565b9392505050565b634e487b7160e01b600052600160045260246000fd5b6000602082840312156116d357600080fd5b815180151581146116a457600080fd5b600080604083850312156116f657600080fd5b505080516020909101519092909150565b60006020828403121561171957600080fd5b81516116a4816113ec565b60006020828403121561173657600080fd5b5051919050565b634e487b7160e01b600052604160045260246000fd5b60008161176257611762611644565b506000190190565b6000825160005b8181101561178b5760208186018101518583015201611771565b8181111561179a576000828501525b509190910192915050565b600082198211156117b8576117b8611644565b500190565b60006000198214156117d1576117d1611644565b5060010190565b80516001600160701b03811681146117ef57600080fd5b919050565b60008060006060848603121561180957600080fd5b611812846117d8565b9250611820602085016117d8565b9150604084015163ffffffff8116811461183957600080fd5b809150509250925092565b60208082526028908201527f556e697377617056324c6962726172793a20494e53554646494349454e545f4c604082015267495155494449545960c01b606082015260800190565b6000826118a957634e487b7160e01b600052601260045260246000fd5b500490565b60008160001904831182151516156118c8576118c8611644565b50029056fea264697066735822122026f5feb71d480f57b392815605f09acc7ca0f121b1a9e71f5e85b438be1cbebe64736f6c634300080a0033",
    "linkReferences": {}
  },
  "methodIdentifiers": {
    "_calculateLiquidity(address,address,uint256,uint256,uint256,uint256)": "55996723",
    "addLiquidity(address,address,uint256,uint256,uint256,uint256,address)": "ca3d6539",
    "quote(uint256,uint256,uint256)": "ad615dec",
    "removeLiquidity(address,address,uint256,uint256,uint256,address)": "c0e3ee6b",
    "swapExactTokensForTokens(uint256,uint256,address[],address)": "472b43f3",
    "swapTokensForExactTokens(uint256,uint256,address[],address)": "42712a67"
  },
  "id": 4
}