{
  "abi": [
    {
      "anonymous": false,
      "inputs": [
        {
          "indexed": true,
          "internalType": "address",
          "name": "dst",
          "type": "address"
        },
        {
          "indexed": false,
          "internalType": "uint256",
          "name": "wad",
          "type": "uint256"
        }
      ],
      "name": "Deposit",
      "type": "event"
    },
    {
      "anonymous": false,
      "inputs": [
        {
          "indexed": true,
          "internalType": "address",
          "name": "src",
          "type": "address"
        },
        {
          "indexed": false,
          "internalType": "uint256",
          "name": "wad",
          "type": "uint256"
        }
      ],
      "name": "Withdrawal",
      "type": "event"
    },
    {
      "inputs": [],
      "name": "decimals",
      "outputs": [
        {
          "internalType": "uint8",
          "name": "",
          "type": "uint8"
        }
      ],
      "stateMutability": "view",
      "type": "function"
    },
    {
      "inputs": [],
      "name": "deposit",
      "outputs": [],
      "stateMutability": "payable",
      "type": "function"
    },
    {
      "inputs": [],
      "name": "name",
      "outputs": [
        {
          "internalType": "string",
          "name": "",
          "type": "string"
        }
      ],
      "stateMutability": "view",
      "type": "function"
    },
    {
      "inputs": [],
      "name": "symbol",
      "outputs": [
        {
          "internalType": "string",
          "name": "",
          "type": "string"
        }
      ],
      "stateMutability": "view",
      "type": "function"
    },
    {
      "inputs": [
        {
          "internalType": "address",
          "name": "to",
          "type": "address"
        },
        {
          "internalType": "uint256",
          "name": "value",
          "type": "uint256"
        }
      ],
      "name": "transfer",
      "outputs": [
        {
          "internalType": "bool",
          "name": "",
          "type": "bool"
        }
      ],
      "stateMutability": "nonpayable",
      "type": "function"
    },
    {
      "inputs": [
        {
          "internalType": "uint256",
          "name": "wad",
          "type": "uint256"
        }
      ],
      "name": "withdraw",
      "outputs": [],
      "stateMutability": "nonpayable",
      "type": "function"
    }
  ],
  "bytecode": {
    "object": "0x608060405234801561001057600080fd5b50610315806100206000396000f3fe6080604052600436106100555760003560e01c806306fdde031461005a5780632e1a7d4d146100a9578063313ce567146100cb57806395d89b41146100f2578063a9059cbb14610122578063d0e30db014610152575b600080fd5b34801561006657600080fd5b506100936040518060400160405280600d81526020016c2bb930b83832b21022ba3432b960991b81525081565b6040516100a09190610239565b60405180910390f35b3480156100b557600080fd5b506100c96100c436600461028e565b61015a565b005b3480156100d757600080fd5b506100e0601281565b60405160ff90911681526020016100a0565b3480156100fe57600080fd5b50610093604051806040016040528060048152602001630ae8aa8960e31b81525081565b34801561012e57600080fd5b5061014261013d3660046102a7565b6101c0565b60405190151581526020016100a0565b6100c9610202565b604051339082156108fc029083906000818181858888f19350505050158015610187573d6000803e3d6000fd5b5060405181815233907f7fcf532c15f0a6db0bd6d0e038bea71d30d808c7d98cb3bf7268a95bf5081b659060200160405180910390a250565b6040516000906001600160a01b0384169083156108fc0290849084818181858888f193505050501580156101f8573d6000803e3d6000fd5b5060019392505050565b60405134815233907fe1fffcc4923d04b559f4d29a8bfc6cda04eb5b0d3c460751c2402c5c5cc9109c9060200160405180910390a2565b600060208083528351808285015260005b818110156102665785810183015185820160400152820161024a565b81811115610278576000604083870101525b50601f01601f1916929092016040019392505050565b6000602082840312156102a057600080fd5b5035919050565b600080604083850312156102ba57600080fd5b82356001600160a01b03811681146102d157600080fd5b94602093909301359350505056fea2646970667358221220105cbe86f5e534dad98ea75c5056feef208c76baf316f80315c4cb34f151c57964736f6c634300080a0033",
    "linkReferences": {}
  },
  "methodIdentifiers": {
    "decimals()": "313ce567",
    "deposit()": "d0e30db0",
    "name()": "06fdde03",
    "symbol()": "95d89b41",
    "transfer(address,uint256)": "a9059cbb",
    "withdraw(uint256)": "2e1a7d4d"
  },
  "id": 22
}